{
  "_format": "hh-sol-artifact-1",
  "contractName": "UsdcToken6",
  "sourceName": "contracts/UsdcToken6.sol",
  "abi": [
    {
      "inputs": [],
      "stateMutability": "nonpayable",
      "type": "constructor"
    },
    {
      "inputs": [],
      "name": "ECDSAInvalidSignature",
      "type": "error"
    },
    {
      "inputs": [
        {
          "internalType": "uint256",
          "name": "length",
          "type": "uint256"
        }
      ],
      "name": "ECDSAInvalidSignatureLength",
      "type": "error"
    },
    {
      "inputs": [
        {
          "internalType": "bytes32",
          "name": "s",
          "type": "bytes32"
        }
      ],
      "name": "ECDSAInvalidSignatureS",
      "type": "error"
    },
    {
      "inputs": [
        {
          "internalType": "address",
          "name": "spender",
          "type": "address"
        },
        {
          "internalType": "uint256",
          "name": "allowance",
          "type": "uint256"
        },
        {
          "internalType": "uint256",
          "name": "needed",
          "type": "uint256"
        }
      ],
      "name": "ERC20InsufficientAllowance",
      "type": "error"
    },
    {
      "inputs": [
        {
          "internalType": "address",
          "name": "sender",
          "type": "address"
        },
        {
          "internalType": "uint256",
          "name": "balance",
          "type": "uint256"
        },
        {
          "internalType": "uint256",
          "name": "needed",
          "type": "uint256"
        }
      ],
      "name": "ERC20InsufficientBalance",
      "type": "error"
    },
    {
      "inputs": [
        {
          "internalType": "address",
          "name": "approver",
          "type": "address"
        }
      ],
      "name": "ERC20InvalidApprover",
      "type": "error"
    },
    {
      "inputs": [
        {
          "internalType": "address",
          "name": "receiver",
          "type": "address"
        }
      ],
      "name": "ERC20InvalidReceiver",
      "type": "error"
    },
    {
      "inputs": [
        {
          "internalType": "address",
          "name": "sender",
          "type": "address"
        }
      ],
      "name": "ERC20InvalidSender",
      "type": "error"
    },
    {
      "inputs": [
        {
          "internalType": "address",
          "name": "spender",
          "type": "address"
        }
      ],
      "name": "ERC20InvalidSpender",
      "type": "error"
    },
    {
      "inputs": [
        {
          "internalType": "uint256",
          "name": "deadline",
          "type": "uint256"
        }
      ],
      "name": "ERC2612ExpiredSignature",
      "type": "error"
    },
    {
      "inputs": [
        {
          "internalType": "address",
          "name": "signer",
          "type": "address"
        },
        {
          "internalType": "address",
          "name": "owner",
          "type": "address"
        }
      ],
      "name": "ERC2612InvalidSigner",
      "type": "error"
    },
    {
      "inputs": [
        {
          "internalType": "address",
          "name": "account",
          "type": "address"
        },
        {
          "internalType": "uint256",
          "name": "currentNonce",
          "type": "uint256"
        }
      ],
      "name": "InvalidAccountNonce",
      "type": "error"
    },
    {
      "inputs": [],
      "name": "InvalidShortString",
      "type": "error"
    },
    {
      "inputs": [
        {
          "internalType": "string",
          "name": "str",
          "type": "string"
        }
      ],
      "name": "StringTooLong",
      "type": "error"
    },
    {
      "anonymous": false,
      "inputs": [
        {
          "indexed": true,
          "internalType": "address",
          "name": "owner",
          "type": "address"
        },
        {
          "indexed": true,
          "internalType": "address",
          "name": "spender",
          "type": "address"
        },
        {
          "indexed": false,
          "internalType": "uint256",
          "name": "value",
          "type": "uint256"
        }
      ],
      "name": "Approval",
      "type": "event"
    },
    {
      "anonymous": false,
      "inputs": [],
      "name": "EIP712DomainChanged",
      "type": "event"
    },
    {
      "anonymous": false,
      "inputs": [
        {
          "indexed": true,
          "internalType": "address",
          "name": "from",
          "type": "address"
        },
        {
          "indexed": true,
          "internalType": "address",
          "name": "to",
          "type": "address"
        },
        {
          "indexed": false,
          "internalType": "uint256",
          "name": "value",
          "type": "uint256"
        }
      ],
      "name": "Transfer",
      "type": "event"
    },
    {
      "inputs": [],
      "name": "DOMAIN_SEPARATOR",
      "outputs": [
        {
          "internalType": "bytes32",
          "name": "",
          "type": "bytes32"
        }
      ],
      "stateMutability": "view",
      "type": "function"
    },
    {
      "inputs": [
        {
          "internalType": "address",
          "name": "owner",
          "type": "address"
        },
        {
          "internalType": "address",
          "name": "spender",
          "type": "address"
        }
      ],
      "name": "allowance",
      "outputs": [
        {
          "internalType": "uint256",
          "name": "",
          "type": "uint256"
        }
      ],
      "stateMutability": "view",
      "type": "function"
    },
    {
      "inputs": [
        {
          "internalType": "address",
          "name": "spender",
          "type": "address"
        },
        {
          "internalType": "uint256",
          "name": "value",
          "type": "uint256"
        }
      ],
      "name": "approve",
      "outputs": [
        {
          "internalType": "bool",
          "name": "",
          "type": "bool"
        }
      ],
      "stateMutability": "nonpayable",
      "type": "function"
    },
    {
      "inputs": [
        {
          "internalType": "address",
          "name": "account",
          "type": "address"
        }
      ],
      "name": "balanceOf",
      "outputs": [
        {
          "internalType": "uint256",
          "name": "",
          "type": "uint256"
        }
      ],
      "stateMutability": "view",
      "type": "function"
    },
    {
      "inputs": [],
      "name": "decimals",
      "outputs": [
        {
          "internalType": "uint8",
          "name": "",
          "type": "uint8"
        }
      ],
      "stateMutability": "pure",
      "type": "function"
    },
    {
      "inputs": [],
      "name": "eip712Domain",
      "outputs": [
        {
          "internalType": "bytes1",
          "name": "fields",
          "type": "bytes1"
        },
        {
          "internalType": "string",
          "name": "name",
          "type": "string"
        },
        {
          "internalType": "string",
          "name": "version",
          "type": "string"
        },
        {
          "internalType": "uint256",
          "name": "chainId",
          "type": "uint256"
        },
        {
          "internalType": "address",
          "name": "verifyingContract",
          "type": "address"
        },
        {
          "internalType": "bytes32",
          "name": "salt",
          "type": "bytes32"
        },
        {
          "internalType": "uint256[]",
          "name": "extensions",
          "type": "uint256[]"
        }
      ],
      "stateMutability": "view",
      "type": "function"
    },
    {
      "inputs": [
        {
          "internalType": "address",
          "name": "_address",
          "type": "address"
        },
        {
          "internalType": "uint256",
          "name": "_value",
          "type": "uint256"
        }
      ],
      "name": "mint",
      "outputs": [],
      "stateMutability": "nonpayable",
      "type": "function"
    },
    {
      "inputs": [],
      "name": "name",
      "outputs": [
        {
          "internalType": "string",
          "name": "",
          "type": "string"
        }
      ],
      "stateMutability": "view",
      "type": "function"
    },
    {
      "inputs": [
        {
          "internalType": "address",
          "name": "owner",
          "type": "address"
        }
      ],
      "name": "nonces",
      "outputs": [
        {
          "internalType": "uint256",
          "name": "",
          "type": "uint256"
        }
      ],
      "stateMutability": "view",
      "type": "function"
    },
    {
      "inputs": [
        {
          "internalType": "address",
          "name": "owner",
          "type": "address"
        },
        {
          "internalType": "address",
          "name": "spender",
          "type": "address"
        },
        {
          "internalType": "uint256",
          "name": "value",
          "type": "uint256"
        },
        {
          "internalType": "uint256",
          "name": "deadline",
          "type": "uint256"
        },
        {
          "internalType": "uint8",
          "name": "v",
          "type": "uint8"
        },
        {
          "internalType": "bytes32",
          "name": "r",
          "type": "bytes32"
        },
        {
          "internalType": "bytes32",
          "name": "s",
          "type": "bytes32"
        }
      ],
      "name": "permit",
      "outputs": [],
      "stateMutability": "nonpayable",
      "type": "function"
    },
    {
      "inputs": [],
      "name": "symbol",
      "outputs": [
        {
          "internalType": "string",
          "name": "",
          "type": "string"
        }
      ],
      "stateMutability": "view",
      "type": "function"
    },
    {
      "inputs": [],
      "name": "totalSupply",
      "outputs": [
        {
          "internalType": "uint256",
          "name": "",
          "type": "uint256"
        }
      ],
      "stateMutability": "view",
      "type": "function"
    },
    {
      "inputs": [
        {
          "internalType": "address",
          "name": "to",
          "type": "address"
        },
        {
          "internalType": "uint256",
          "name": "value",
          "type": "uint256"
        }
      ],
      "name": "transfer",
      "outputs": [
        {
          "internalType": "bool",
          "name": "",
          "type": "bool"
        }
      ],
      "stateMutability": "nonpayable",
      "type": "function"
    },
    {
      "inputs": [
        {
          "internalType": "address",
          "name": "from",
          "type": "address"
        },
        {
          "internalType": "address",
          "name": "to",
          "type": "address"
        },
        {
          "internalType": "uint256",
          "name": "value",
          "type": "uint256"
        }
      ],
      "name": "transferFrom",
      "outputs": [
        {
          "internalType": "bool",
          "name": "",
          "type": "bool"
        }
      ],
      "stateMutability": "nonpayable",
      "type": "function"
    }
  ],
  "bytecode": "0x61016060405234801561001157600080fd5b506040518060400160405280600a81526020017f55736463546f6b656e3600000000000000000000000000000000000000000000815250806040518060400160405280600181526020017f31000000000000000000000000000000000000000000000000000000000000008152506040518060400160405280600a81526020017f55736463546f6b656e36000000000000000000000000000000000000000000008152506040518060400160405280600781526020017f545543555344430000000000000000000000000000000000000000000000000081525081600390816100fa919061052a565b50806004908161010a919061052a565b5050506101216005836101bd60201b90919060201c565b610120818152505061013d6006826101bd60201b90919060201c565b6101408181525050818051906020012060e08181525050808051906020012061010081815250504660a0818152505061017a61020d60201b60201c565b608081815250503073ffffffffffffffffffffffffffffffffffffffff1660c08173ffffffffffffffffffffffffffffffffffffffff16815250505050506107f6565b60006020835110156101df576101d88361026860201b60201c565b9050610207565b826101ef836102d060201b60201c565b60000190816101fe919061052a565b5060ff60001b90505b92915050565b60007f8b73c3c69bb8fe3d512ecc4cf759cc79239f7b179b0ffacaa9a75d522b39400f60e05161010051463060405160200161024d959493929190610665565b60405160208183030381529060405280519060200120905090565b600080829050601f815111156102b557826040517f305a27a90000000000000000000000000000000000000000000000000000000081526004016102ac919061073d565b60405180910390fd5b8051816102c19061078f565b60001c1760001b915050919050565b6000819050919050565b600081519050919050565b7f4e487b7100000000000000000000000000000000000000000000000000000000600052604160045260246000fd5b7f4e487b7100000000000000000000000000000000000000000000000000000000600052602260045260246000fd5b6000600282049050600182168061035b57607f821691505b60208210810361036e5761036d610314565b5b50919050565b60008190508160005260206000209050919050565b60006020601f8301049050919050565b600082821b905092915050565b6000600883026103d67fffffffffffffffffffffffffffffffffffffffffffffffffffffffffffffffff82610399565b6103e08683610399565b95508019841693508086168417925050509392505050565b6000819050919050565b6000819050919050565b600061042761042261041d846103f8565b610402565b6103f8565b9050919050565b6000819050919050565b6104418361040c565b61045561044d8261042e565b8484546103a6565b825550505050565b600090565b61046a61045d565b610475818484610438565b505050565b5b818110156104995761048e600082610462565b60018101905061047b565b5050565b601f8211156104de576104af81610374565b6104b884610389565b810160208510156104c7578190505b6104db6104d385610389565b83018261047a565b50505b505050565b600082821c905092915050565b6000610501600019846008026104e3565b1980831691505092915050565b600061051a83836104f0565b9150826002028217905092915050565b610533826102da565b67ffffffffffffffff81111561054c5761054b6102e5565b5b6105568254610343565b61056182828561049d565b600060209050601f8311600181146105945760008415610582578287015190505b61058c858261050e565b8655506105f4565b601f1984166105a286610374565b60005b828110156105ca578489015182556001820191506020850194506020810190506105a5565b868310156105e757848901516105e3601f8916826104f0565b8355505b6001600288020188555050505b505050505050565b6000819050919050565b61060f816105fc565b82525050565b61061e816103f8565b82525050565b600073ffffffffffffffffffffffffffffffffffffffff82169050919050565b600061064f82610624565b9050919050565b61065f81610644565b82525050565b600060a08201905061067a6000830188610606565b6106876020830187610606565b6106946040830186610606565b6106a16060830185610615565b6106ae6080830184610656565b9695505050505050565b600082825260208201905092915050565b60005b838110156106e75780820151818401526020810190506106cc565b60008484015250505050565b6000601f19601f8301169050919050565b600061070f826102da565b61071981856106b8565b93506107298185602086016106c9565b610732816106f3565b840191505092915050565b600060208201905081810360008301526107578184610704565b905092915050565b600081519050919050565b6000819050602082019050919050565b600061078682516105fc565b80915050919050565b600061079a8261075f565b826107a48461076a565b90506107af8161077a565b925060208210156107ef576107ea7fffffffffffffffffffffffffffffffffffffffffffffffffffffffffffffffff83602003600802610399565b831692505b5050919050565b60805160a05160c05160e051610100516101205161014051611cdf6108506000396000610b0601526000610acb0152600061101b01526000610ffa015260006109440152600061099a015260006109c30152611cdf6000f3fe608060405234801561001057600080fd5b50600436106100ea5760003560e01c806370a082311161008c57806395d89b411161006657806395d89b4114610267578063a9059cbb14610285578063d505accf146102b5578063dd62ed3e146102d1576100ea565b806370a08231146101e35780637ecebe001461021357806384b0196e14610243576100ea565b806323b872dd116100c857806323b872dd1461015b578063313ce5671461018b5780633644e515146101a957806340c10f19146101c7576100ea565b806306fdde03146100ef578063095ea7b31461010d57806318160ddd1461013d575b600080fd5b6100f7610301565b6040516101049190611508565b60405180910390f35b610127600480360381019061012291906115c3565b610393565b604051610134919061161e565b60405180910390f35b6101456103b6565b6040516101529190611648565b60405180910390f35b61017560048036038101906101709190611663565b6103c0565b604051610182919061161e565b60405180910390f35b6101936103ef565b6040516101a091906116d2565b60405180910390f35b6101b16103f8565b6040516101be9190611706565b60405180910390f35b6101e160048036038101906101dc91906115c3565b610407565b005b6101fd60048036038101906101f89190611721565b610415565b60405161020a9190611648565b60405180910390f35b61022d60048036038101906102289190611721565b61045d565b60405161023a9190611648565b60405180910390f35b61024b61046f565b60405161025e9796959493929190611856565b60405180910390f35b61026f610519565b60405161027c9190611508565b60405180910390f35b61029f600480360381019061029a91906115c3565b6105ab565b6040516102ac919061161e565b60405180910390f35b6102cf60048036038101906102ca9190611932565b6105ce565b005b6102eb60048036038101906102e691906119d4565b610716565b6040516102f89190611648565b60405180910390f35b60606003805461031090611a43565b80601f016020809104026020016040519081016040528092919081815260200182805461033c90611a43565b80156103895780601f1061035e57610100808354040283529160200191610389565b820191906000526020600020905b81548152906001019060200180831161036c57829003601f168201915b5050505050905090565b60008061039e61079d565b90506103ab8185856107a5565b600191505092915050565b6000600254905090565b6000806103cb61079d565b90506103d88582856107b7565b6103e385858561084c565b60019150509392505050565b60006006905090565b6000610402610940565b905090565b61041182826109f7565b5050565b60008060008373ffffffffffffffffffffffffffffffffffffffff1673ffffffffffffffffffffffffffffffffffffffff168152602001908152602001600020549050919050565b600061046882610a79565b9050919050565b600060608060008060006060610483610ac2565b61048b610afd565b46306000801b600067ffffffffffffffff8111156104ac576104ab611a74565b5b6040519080825280602002602001820160405280156104da5781602001602082028036833780820191505090505b507f0f00000000000000000000000000000000000000000000000000000000000000959493929190965096509650965096509650965090919293949596565b60606004805461052890611a43565b80601f016020809104026020016040519081016040528092919081815260200182805461055490611a43565b80156105a15780601f10610576576101008083540402835291602001916105a1565b820191906000526020600020905b81548152906001019060200180831161058457829003601f168201915b5050505050905090565b6000806105b661079d565b90506105c381858561084c565b600191505092915050565b8342111561061357836040517f6279130200000000000000000000000000000000000000000000000000000000815260040161060a9190611648565b60405180910390fd5b60007f6e71edae12b1b97f4d1f60370fef10105fa2faae0126114a169c64845d6126c98888886106428c610b38565b8960405160200161065896959493929190611aa3565b604051602081830303815290604052805190602001209050600061067b82610b8f565b9050600061068b82878787610ba9565b90508973ffffffffffffffffffffffffffffffffffffffff168173ffffffffffffffffffffffffffffffffffffffff16146106ff57808a6040517f4b800e460000000000000000000000000000000000000000000000000000000081526004016106f6929190611b04565b60405180910390fd5b61070a8a8a8a6107a5565b50505050505050505050565b6000600160008473ffffffffffffffffffffffffffffffffffffffff1673ffffffffffffffffffffffffffffffffffffffff16815260200190815260200160002060008373ffffffffffffffffffffffffffffffffffffffff1673ffffffffffffffffffffffffffffffffffffffff16815260200190815260200160002054905092915050565b600033905090565b6107b28383836001610bd9565b505050565b60006107c38484610716565b90507fffffffffffffffffffffffffffffffffffffffffffffffffffffffffffffffff8110156108465781811015610836578281836040517ffb8f41b200000000000000000000000000000000000000000000000000000000815260040161082d93929190611b2d565b60405180910390fd5b61084584848484036000610bd9565b5b50505050565b600073ffffffffffffffffffffffffffffffffffffffff168373ffffffffffffffffffffffffffffffffffffffff16036108be5760006040517f96c6fd1e0000000000000000000000000000000000000000000000000000000081526004016108b59190611b64565b60405180910390fd5b600073ffffffffffffffffffffffffffffffffffffffff168273ffffffffffffffffffffffffffffffffffffffff16036109305760006040517fec442f050000000000000000000000000000000000000000000000000000000081526004016109279190611b64565b60405180910390fd5b61093b838383610db0565b505050565b60007f000000000000000000000000000000000000000000000000000000000000000073ffffffffffffffffffffffffffffffffffffffff163073ffffffffffffffffffffffffffffffffffffffff161480156109bc57507f000000000000000000000000000000000000000000000000000000000000000046145b156109e9577f000000000000000000000000000000000000000000000000000000000000000090506109f4565b6109f1610fd5565b90505b90565b600073ffffffffffffffffffffffffffffffffffffffff168273ffffffffffffffffffffffffffffffffffffffff1603610a695760006040517fec442f05000000000000000000000000000000000000000000000000000000008152600401610a609190611b64565b60405180910390fd5b610a7560008383610db0565b5050565b6000600760008373ffffffffffffffffffffffffffffffffffffffff1673ffffffffffffffffffffffffffffffffffffffff168152602001908152602001600020549050919050565b6060610af860057f000000000000000000000000000000000000000000000000000000000000000061106b90919063ffffffff16565b905090565b6060610b3360067f000000000000000000000000000000000000000000000000000000000000000061106b90919063ffffffff16565b905090565b6000600760008373ffffffffffffffffffffffffffffffffffffffff1673ffffffffffffffffffffffffffffffffffffffff1681526020019081526020016000206000815480929190600101919050559050919050565b6000610ba2610b9c610940565b8361111b565b9050919050565b600080600080610bbb8888888861115c565b925092509250610bcb8282611250565b829350505050949350505050565b600073ffffffffffffffffffffffffffffffffffffffff168473ffffffffffffffffffffffffffffffffffffffff1603610c4b5760006040517fe602df05000000000000000000000000000000000000000000000000000000008152600401610c429190611b64565b60405180910390fd5b600073ffffffffffffffffffffffffffffffffffffffff168373ffffffffffffffffffffffffffffffffffffffff1603610cbd5760006040517f94280d62000000000000000000000000000000000000000000000000000000008152600401610cb49190611b64565b60405180910390fd5b81600160008673ffffffffffffffffffffffffffffffffffffffff1673ffffffffffffffffffffffffffffffffffffffff16815260200190815260200160002060008573ffffffffffffffffffffffffffffffffffffffff1673ffffffffffffffffffffffffffffffffffffffff168152602001908152602001600020819055508015610daa578273ffffffffffffffffffffffffffffffffffffffff168473ffffffffffffffffffffffffffffffffffffffff167f8c5be1e5ebec7d5bd14f71427d1e84f3dd0314c0f7b2291e5b200ac8c7c3b92584604051610da19190611648565b60405180910390a35b50505050565b600073ffffffffffffffffffffffffffffffffffffffff168373ffffffffffffffffffffffffffffffffffffffff1603610e02578060026000828254610df69190611bae565b92505081905550610ed5565b60008060008573ffffffffffffffffffffffffffffffffffffffff1673ffffffffffffffffffffffffffffffffffffffff16815260200190815260200160002054905081811015610e8e578381836040517fe450d38c000000000000000000000000000000000000000000000000000000008152600401610e8593929190611b2d565b60405180910390fd5b8181036000808673ffffffffffffffffffffffffffffffffffffffff1673ffffffffffffffffffffffffffffffffffffffff16815260200190815260200160002081905550505b600073ffffffffffffffffffffffffffffffffffffffff168273ffffffffffffffffffffffffffffffffffffffff1603610f1e5780600260008282540392505081905550610f6b565b806000808473ffffffffffffffffffffffffffffffffffffffff1673ffffffffffffffffffffffffffffffffffffffff168152602001908152602001600020600082825401925050819055505b8173ffffffffffffffffffffffffffffffffffffffff168373ffffffffffffffffffffffffffffffffffffffff167fddf252ad1be2c89b69c2b068fc378daa952ba7f163c4a11628f55a4df523b3ef83604051610fc89190611648565b60405180910390a3505050565b60007f8b73c3c69bb8fe3d512ecc4cf759cc79239f7b179b0ffacaa9a75d522b39400f7f00000000000000000000000000000000000000000000000000000000000000007f00000000000000000000000000000000000000000000000000000000000000004630604051602001611050959493929190611be2565b60405160208183030381529060405280519060200120905090565b606060ff60001b831461108857611081836113b4565b9050611115565b81805461109490611a43565b80601f01602080910402602001604051908101604052809291908181526020018280546110c090611a43565b801561110d5780601f106110e25761010080835404028352916020019161110d565b820191906000526020600020905b8154815290600101906020018083116110f057829003601f168201915b505050505090505b92915050565b60006040517f190100000000000000000000000000000000000000000000000000000000000081528360028201528260228201526042812091505092915050565b60008060007f7fffffffffffffffffffffffffffffff5d576e7357a4501ddfe92f46681b20a08460001c111561119c576000600385925092509250611246565b6000600188888888604051600081526020016040526040516111c19493929190611c35565b6020604051602081039080840390855afa1580156111e3573d6000803e3d6000fd5b505050602060405103519050600073ffffffffffffffffffffffffffffffffffffffff168173ffffffffffffffffffffffffffffffffffffffff160361123757600060016000801b93509350935050611246565b8060008060001b935093509350505b9450945094915050565b6000600381111561126457611263611c7a565b5b82600381111561127757611276611c7a565b5b03156113b0576001600381111561129157611290611c7a565b5b8260038111156112a4576112a3611c7a565b5b036112db576040517ff645eedf00000000000000000000000000000000000000000000000000000000815260040160405180910390fd5b600260038111156112ef576112ee611c7a565b5b82600381111561130257611301611c7a565b5b03611347578060001c6040517ffce698f700000000000000000000000000000000000000000000000000000000815260040161133e9190611648565b60405180910390fd5b60038081111561135a57611359611c7a565b5b82600381111561136d5761136c611c7a565b5b036113af57806040517fd78bce0c0000000000000000000000000000000000000000000000000000000081526004016113a69190611706565b60405180910390fd5b5b5050565b606060006113c183611428565b90506000602067ffffffffffffffff8111156113e0576113df611a74565b5b6040519080825280601f01601f1916602001820160405280156114125781602001600182028036833780820191505090505b5090508181528360208201528092505050919050565b60008060ff8360001c169050601f81111561146f576040517fb3512b0c00000000000000000000000000000000000000000000000000000000815260040160405180910390fd5b80915050919050565b600081519050919050565b600082825260208201905092915050565b60005b838110156114b2578082015181840152602081019050611497565b60008484015250505050565b6000601f19601f8301169050919050565b60006114da82611478565b6114e48185611483565b93506114f4818560208601611494565b6114fd816114be565b840191505092915050565b6000602082019050818103600083015261152281846114cf565b905092915050565b600080fd5b600073ffffffffffffffffffffffffffffffffffffffff82169050919050565b600061155a8261152f565b9050919050565b61156a8161154f565b811461157557600080fd5b50565b60008135905061158781611561565b92915050565b6000819050919050565b6115a08161158d565b81146115ab57600080fd5b50565b6000813590506115bd81611597565b92915050565b600080604083850312156115da576115d961152a565b5b60006115e885828601611578565b92505060206115f9858286016115ae565b9150509250929050565b60008115159050919050565b61161881611603565b82525050565b6000602082019050611633600083018461160f565b92915050565b6116428161158d565b82525050565b600060208201905061165d6000830184611639565b92915050565b60008060006060848603121561167c5761167b61152a565b5b600061168a86828701611578565b935050602061169b86828701611578565b92505060406116ac868287016115ae565b9150509250925092565b600060ff82169050919050565b6116cc816116b6565b82525050565b60006020820190506116e760008301846116c3565b92915050565b6000819050919050565b611700816116ed565b82525050565b600060208201905061171b60008301846116f7565b92915050565b6000602082840312156117375761173661152a565b5b600061174584828501611578565b91505092915050565b60007fff0000000000000000000000000000000000000000000000000000000000000082169050919050565b6117838161174e565b82525050565b6117928161154f565b82525050565b600081519050919050565b600082825260208201905092915050565b6000819050602082019050919050565b6117cd8161158d565b82525050565b60006117df83836117c4565b60208301905092915050565b6000602082019050919050565b600061180382611798565b61180d81856117a3565b9350611818836117b4565b8060005b8381101561184957815161183088826117d3565b975061183b836117eb565b92505060018101905061181c565b5085935050505092915050565b600060e08201905061186b600083018a61177a565b818103602083015261187d81896114cf565b9050818103604083015261189181886114cf565b90506118a06060830187611639565b6118ad6080830186611789565b6118ba60a08301856116f7565b81810360c08301526118cc81846117f8565b905098975050505050505050565b6118e3816116b6565b81146118ee57600080fd5b50565b600081359050611900816118da565b92915050565b61190f816116ed565b811461191a57600080fd5b50565b60008135905061192c81611906565b92915050565b600080600080600080600060e0888a0312156119515761195061152a565b5b600061195f8a828b01611578565b97505060206119708a828b01611578565b96505060406119818a828b016115ae565b95505060606119928a828b016115ae565b94505060806119a38a828b016118f1565b93505060a06119b48a828b0161191d565b92505060c06119c58a828b0161191d565b91505092959891949750929550565b600080604083850312156119eb576119ea61152a565b5b60006119f985828601611578565b9250506020611a0a85828601611578565b9150509250929050565b7f4e487b7100000000000000000000000000000000000000000000000000000000600052602260045260246000fd5b60006002820490506001821680611a5b57607f821691505b602082108103611a6e57611a6d611a14565b5b50919050565b7f4e487b7100000000000000000000000000000000000000000000000000000000600052604160045260246000fd5b600060c082019050611ab860008301896116f7565b611ac56020830188611789565b611ad26040830187611789565b611adf6060830186611639565b611aec6080830185611639565b611af960a0830184611639565b979650505050505050565b6000604082019050611b196000830185611789565b611b266020830184611789565b9392505050565b6000606082019050611b426000830186611789565b611b4f6020830185611639565b611b5c6040830184611639565b949350505050565b6000602082019050611b796000830184611789565b92915050565b7f4e487b7100000000000000000000000000000000000000000000000000000000600052601160045260246000fd5b6000611bb98261158d565b9150611bc48361158d565b9250828201905080821115611bdc57611bdb611b7f565b5b92915050565b600060a082019050611bf760008301886116f7565b611c0460208301876116f7565b611c1160408301866116f7565b611c1e6060830185611639565b611c2b6080830184611789565b9695505050505050565b6000608082019050611c4a60008301876116f7565b611c5760208301866116c3565b611c6460408301856116f7565b611c7160608301846116f7565b95945050505050565b7f4e487b7100000000000000000000000000000000000000000000000000000000600052602160045260246000fdfea26469706673582212204b31840a885c7f79117bff37badccbd2aea8bd4079d2fd202897522ffd3c2cf264736f6c634300081c0033",
  "linkReferences": {},
  "deployedLinkReferences": {}
}